{
  "_format": "hh3-artifact-1",
  "contractName": "Hasher",
  "sourceName": "contracts/RPS.sol",
  "abi": [
    {
      "constant": true,
      "inputs": [
        {
          "name": "_c",
          "type": "uint8"
        },
        {
          "name": "_salt",
          "type": "uint256"
        }
      ],
      "name": "hash",
      "outputs": [
        {
          "name": "",
          "type": "bytes32"
        }
      ],
      "payable": false,
      "stateMutability": "view",
      "type": "function"
    }
  ],
  "bytecode": "0x6080604052348015600f57600080fd5b5060e08061001e6000396000f300608060405260043610603e5763ffffffff7c010000000000000000000000000000000000000000000000000000000060003504166367ef4c1381146043575b600080fd5b348015604e57600080fd5b50605e60ff600435166024356070565b60408051918252519081900360200190f35b604080517f010000000000000000000000000000000000000000000000000000000000000060ff8516028152600181018390529051908190036021019020929150505600a165627a7a723058204f143874eedce9d7329ab88bc85329598f467dc7a703c639bed327fce1f0824b0029",
  "linkReferences": {},
  "deployedLinkReferences": {},
  "immutableReferences": {},
  "inputSourceName": "project/contracts/RPS.sol",
  "buildInfoId": "solc-0_4_26-f2fa426b71701114d93a61f42d7f49b4a99c58b4"
}